{
	"HelloWorld.sol": {
		"HelloWorld": {
			"abi": [
				{
					"inputs": [
						{
							"internalType": "string",
							"name": "firstmessage",
							"type": "string"
						}
					],
					"stateMutability": "nonpayable",
					"type": "constructor"
				},
				{
					"anonymous": false,
					"inputs": [
						{
							"indexed": false,
							"internalType": "string",
							"name": "oldmsg",
							"type": "string"
						},
						{
							"indexed": false,
							"internalType": "string",
							"name": "newmsg",
							"type": "string"
						}
					],
					"name": "messagechanged",
					"type": "event"
				},
				{
					"inputs": [],
					"name": "message",
					"outputs": [
						{
							"internalType": "string",
							"name": "",
							"type": "string"
						}
					],
					"stateMutability": "view",
					"type": "function"
				},
				{
					"inputs": [
						{
							"internalType": "string",
							"name": "newmesssage",
							"type": "string"
						}
					],
					"name": "update",
					"outputs": [],
					"stateMutability": "nonpayable",
					"type": "function"
				}
			],
			"devdoc": {
				"kind": "dev",
				"methods": {},
				"version": 1
			},
			"evm": {
				"assembly": "    /* \"HelloWorld.sol\":70:446  contract HelloWorld {\r... */\n  mstore(0x40, 0x80)\n    /* \"HelloWorld.sol\":182:261  constructor(string memory firstmessage) {\r... */\n  callvalue\n  dup1\n  iszero\n  tag_1\n  jumpi\n  0x00\n  dup1\n  revert\ntag_1:\n  pop\n  mload(0x40)\n  sub(codesize, bytecodeSize)\n  dup1\n  bytecodeSize\n  dup4\n  codecopy\n  dup2\n  dup2\n  add\n  0x40\n  mstore\n  dup2\n  add\n  swap1\n  tag_2\n  swap2\n  swap1\n  tag_3\n  jump\t// in\ntag_2:\n    /* \"HelloWorld.sol\":241:253  firstmessage */\n  dup1\n    /* \"HelloWorld.sol\":231:238  message */\n  0x00\n    /* \"HelloWorld.sol\":231:253  message = firstmessage */\n  swap1\n  dup1\n  mload\n  swap1\n  0x20\n  add\n  swap1\n  tag_6\n  swap3\n  swap2\n  swap1\n  tag_7\n  jump\t// in\ntag_6:\n  pop\n    /* \"HelloWorld.sol\":182:261  constructor(string memory firstmessage) {\r... */\n  pop\n    /* \"HelloWorld.sol\":70:446  contract HelloWorld {\r... */\n  jump(tag_8)\ntag_7:\n  dup3\n  dup1\n  sload\n  tag_9\n  swap1\n  tag_10\n  jump\t// in\ntag_9:\n  swap1\n  0x00\n  mstore\n  keccak256(0x00, 0x20)\n  swap1\n  0x1f\n  add\n  0x20\n  swap1\n  div\n  dup2\n  add\n  swap3\n  dup3\n  tag_12\n  jumpi\n  0x00\n  dup6\n  sstore\n  jump(tag_11)\ntag_12:\n  dup3\n  0x1f\n  lt\n  tag_13\n  jumpi\n  dup1\n  mload\n  not(0xff)\n  and\n  dup4\n  dup1\n  add\n  or\n  dup6\n  sstore\n  jump(tag_11)\ntag_13:\n  dup3\n  dup1\n  add\n  0x01\n  add\n  dup6\n  sstore\n  dup3\n  iszero\n  tag_11\n  jumpi\n  swap2\n  dup3\n  add\ntag_14:\n  dup3\n  dup2\n  gt\n  iszero\n  tag_15\n  jumpi\n  dup3\n  mload\n  dup3\n  sstore\n  swap2\n  0x20\n  add\n  swap2\n  swap1\n  0x01\n  add\n  swap1\n  jump(tag_14)\ntag_15:\ntag_11:\n  pop\n  swap1\n  pop\n  tag_16\n  swap2\n  swap1\n  tag_17\n  jump\t// in\ntag_16:\n  pop\n  swap1\n  jump\t// out\ntag_17:\ntag_18:\n  dup1\n  dup3\n  gt\n  iszero\n  tag_19\n  jumpi\n  0x00\n  dup2\n  0x00\n  swap1\n  sstore\n  pop\n  0x01\n  add\n  jump(tag_18)\ntag_19:\n  pop\n  swap1\n  jump\t// out\n    /* \"#utility.yul\":7:428   */\ntag_21:\n    /* \"#utility.yul\":96:101   */\n  0x00\n    /* \"#utility.yul\":121:187   */\n  tag_23\n    /* \"#utility.yul\":137:186   */\n  tag_24\n    /* \"#utility.yul\":179:185   */\n  dup5\n    /* \"#utility.yul\":137:186   */\n  tag_25\n  jump\t// in\ntag_24:\n    /* \"#utility.yul\":121:187   */\n  tag_26\n  jump\t// in\ntag_23:\n    /* \"#utility.yul\":112:187   */\n  swap1\n  pop\n    /* \"#utility.yul\":210:216   */\n  dup3\n    /* \"#utility.yul\":203:208   */\n  dup2\n    /* \"#utility.yul\":196:217   */\n  mstore\n    /* \"#utility.yul\":248:252   */\n  0x20\n    /* \"#utility.yul\":241:246   */\n  dup2\n    /* \"#utility.yul\":237:253   */\n  add\n    /* \"#utility.yul\":286:289   */\n  dup5\n    /* \"#utility.yul\":277:283   */\n  dup5\n    /* \"#utility.yul\":272:275   */\n  dup5\n    /* \"#utility.yul\":268:284   */\n  add\n    /* \"#utility.yul\":265:290   */\n  gt\n    /* \"#utility.yul\":262:374   */\n  iszero\n  tag_27\n  jumpi\n    /* \"#utility.yul\":293:372   */\n  tag_28\n  tag_29\n  jump\t// in\ntag_28:\n    /* \"#utility.yul\":262:374   */\ntag_27:\n    /* \"#utility.yul\":383:422   */\n  tag_30\n    /* \"#utility.yul\":415:421   */\n  dup5\n    /* \"#utility.yul\":410:413   */\n  dup3\n    /* \"#utility.yul\":405:408   */\n  dup6\n    /* \"#utility.yul\":383:422   */\n  tag_31\n  jump\t// in\ntag_30:\n    /* \"#utility.yul\":102:428   */\n  pop\n    /* \"#utility.yul\":7:428   */\n  swap4\n  swap3\n  pop\n  pop\n  pop\n  jump\t// out\n    /* \"#utility.yul\":448:803   */\ntag_32:\n    /* \"#utility.yul\":515:520   */\n  0x00\n    /* \"#utility.yul\":564:567   */\n  dup3\n    /* \"#utility.yul\":557:561   */\n  0x1f\n    /* \"#utility.yul\":549:555   */\n  dup4\n    /* \"#utility.yul\":545:562   */\n  add\n    /* \"#utility.yul\":541:568   */\n  slt\n    /* \"#utility.yul\":531:653   */\n  tag_34\n  jumpi\n    /* \"#utility.yul\":572:651   */\n  tag_35\n  tag_36\n  jump\t// in\ntag_35:\n    /* \"#utility.yul\":531:653   */\ntag_34:\n    /* \"#utility.yul\":682:688   */\n  dup2\n    /* \"#utility.yul\":676:689   */\n  mload\n    /* \"#utility.yul\":707:797   */\n  tag_37\n    /* \"#utility.yul\":793:796   */\n  dup5\n    /* \"#utility.yul\":785:791   */\n  dup3\n    /* \"#utility.yul\":778:782   */\n  0x20\n    /* \"#utility.yul\":770:776   */\n  dup7\n    /* \"#utility.yul\":766:783   */\n  add\n    /* \"#utility.yul\":707:797   */\n  tag_21\n  jump\t// in\ntag_37:\n    /* \"#utility.yul\":698:797   */\n  swap2\n  pop\n    /* \"#utility.yul\":521:803   */\n  pop\n    /* \"#utility.yul\":448:803   */\n  swap3\n  swap2\n  pop\n  pop\n  jump\t// out\n    /* \"#utility.yul\":809:1333   */\ntag_3:\n    /* \"#utility.yul\":889:895   */\n  0x00\n    /* \"#utility.yul\":938:940   */\n  0x20\n    /* \"#utility.yul\":926:935   */\n  dup3\n    /* \"#utility.yul\":917:924   */\n  dup5\n    /* \"#utility.yul\":913:936   */\n  sub\n    /* \"#utility.yul\":909:941   */\n  slt\n    /* \"#utility.yul\":906:1025   */\n  iszero\n  tag_39\n  jumpi\n    /* \"#utility.yul\":944:1023   */\n  tag_40\n  tag_41\n  jump\t// in\ntag_40:\n    /* \"#utility.yul\":906:1025   */\ntag_39:\n    /* \"#utility.yul\":1085:1086   */\n  0x00\n    /* \"#utility.yul\":1074:1083   */\n  dup3\n    /* \"#utility.yul\":1070:1087   */\n  add\n    /* \"#utility.yul\":1064:1088   */\n  mload\n    /* \"#utility.yul\":1115:1133   */\n  0xffffffffffffffff\n    /* \"#utility.yul\":1107:1113   */\n  dup2\n    /* \"#utility.yul\":1104:1134   */\n  gt\n    /* \"#utility.yul\":1101:1218   */\n  iszero\n  tag_42\n  jumpi\n    /* \"#utility.yul\":1137:1216   */\n  tag_43\n  tag_44\n  jump\t// in\ntag_43:\n    /* \"#utility.yul\":1101:1218   */\ntag_42:\n    /* \"#utility.yul\":1242:1316   */\n  tag_45\n    /* \"#utility.yul\":1308:1315   */\n  dup5\n    /* \"#utility.yul\":1299:1305   */\n  dup3\n    /* \"#utility.yul\":1288:1297   */\n  dup6\n    /* \"#utility.yul\":1284:1306   */\n  add\n    /* \"#utility.yul\":1242:1316   */\n  tag_32\n  jump\t// in\ntag_45:\n    /* \"#utility.yul\":1232:1316   */\n  swap2\n  pop\n    /* \"#utility.yul\":1035:1326   */\n  pop\n    /* \"#utility.yul\":809:1333   */\n  swap3\n  swap2\n  pop\n  pop\n  jump\t// out\n    /* \"#utility.yul\":1339:1468   */\ntag_26:\n    /* \"#utility.yul\":1373:1379   */\n  0x00\n    /* \"#utility.yul\":1400:1420   */\n  tag_47\n  tag_48\n  jump\t// in\ntag_47:\n    /* \"#utility.yul\":1390:1420   */\n  swap1\n  pop\n    /* \"#utility.yul\":1429:1462   */\n  tag_49\n    /* \"#utility.yul\":1457:1461   */\n  dup3\n    /* \"#utility.yul\":1449:1455   */\n  dup3\n    /* \"#utility.yul\":1429:1462   */\n  tag_50\n  jump\t// in\ntag_49:\n    /* \"#utility.yul\":1339:1468   */\n  swap2\n  swap1\n  pop\n  jump\t// out\n    /* \"#utility.yul\":1474:1549   */\ntag_48:\n    /* \"#utility.yul\":1507:1513   */\n  0x00\n    /* \"#utility.yul\":1540:1542   */\n  0x40\n    /* \"#utility.yul\":1534:1543   */\n  mload\n    /* \"#utility.yul\":1524:1543   */\n  swap1\n  pop\n    /* \"#utility.yul\":1474:1549   */\n  swap1\n  jump\t// out\n    /* \"#utility.yul\":1555:1863   */\ntag_25:\n    /* \"#utility.yul\":1617:1621   */\n  0x00\n    /* \"#utility.yul\":1707:1725   */\n  0xffffffffffffffff\n    /* \"#utility.yul\":1699:1705   */\n  dup3\n    /* \"#utility.yul\":1696:1726   */\n  gt\n    /* \"#utility.yul\":1693:1749   */\n  iszero\n  tag_53\n  jumpi\n    /* \"#utility.yul\":1729:1747   */\n  tag_54\n  tag_55\n  jump\t// in\ntag_54:\n    /* \"#utility.yul\":1693:1749   */\ntag_53:\n    /* \"#utility.yul\":1767:1796   */\n  tag_56\n    /* \"#utility.yul\":1789:1795   */\n  dup3\n    /* \"#utility.yul\":1767:1796   */\n  tag_57\n  jump\t// in\ntag_56:\n    /* \"#utility.yul\":1759:1796   */\n  swap1\n  pop\n    /* \"#utility.yul\":1851:1855   */\n  0x20\n    /* \"#utility.yul\":1845:1849   */\n  dup2\n    /* \"#utility.yul\":1841:1856   */\n  add\n    /* \"#utility.yul\":1833:1856   */\n  swap1\n  pop\n    /* \"#utility.yul\":1555:1863   */\n  swap2\n  swap1\n  pop\n  jump\t// out\n    /* \"#utility.yul\":1869:2176   */\ntag_31:\n    /* \"#utility.yul\":1937:1938   */\n  0x00\n    /* \"#utility.yul\":1947:2060   */\ntag_59:\n    /* \"#utility.yul\":1961:1967   */\n  dup4\n    /* \"#utility.yul\":1958:1959   */\n  dup2\n    /* \"#utility.yul\":1955:1968   */\n  lt\n    /* \"#utility.yul\":1947:2060   */\n  iszero\n  tag_61\n  jumpi\n    /* \"#utility.yul\":2046:2047   */\n  dup1\n    /* \"#utility.yul\":2041:2044   */\n  dup3\n    /* \"#utility.yul\":2037:2048   */\n  add\n    /* \"#utility.yul\":2031:2049   */\n  mload\n    /* \"#utility.yul\":2027:2028   */\n  dup2\n    /* \"#utility.yul\":2022:2025   */\n  dup5\n    /* \"#utility.yul\":2018:2029   */\n  add\n    /* \"#utility.yul\":2011:2050   */\n  mstore\n    /* \"#utility.yul\":1983:1985   */\n  0x20\n    /* \"#utility.yul\":1980:1981   */\n  dup2\n    /* \"#utility.yul\":1976:1986   */\n  add\n    /* \"#utility.yul\":1971:1986   */\n  swap1\n  pop\n    /* \"#utility.yul\":1947:2060   */\n  jump(tag_59)\ntag_61:\n    /* \"#utility.yul\":2078:2084   */\n  dup4\n    /* \"#utility.yul\":2075:2076   */\n  dup2\n    /* \"#utility.yul\":2072:2085   */\n  gt\n    /* \"#utility.yul\":2069:2170   */\n  iszero\n  tag_62\n  jumpi\n    /* \"#utility.yul\":2158:2159   */\n  0x00\n    /* \"#utility.yul\":2149:2155   */\n  dup5\n    /* \"#utility.yul\":2144:2147   */\n  dup5\n    /* \"#utility.yul\":2140:2156   */\n  add\n    /* \"#utility.yul\":2133:2160   */\n  mstore\n    /* \"#utility.yul\":2069:2170   */\ntag_62:\n    /* \"#utility.yul\":1918:2176   */\n  pop\n    /* \"#utility.yul\":1869:2176   */\n  pop\n  pop\n  pop\n  jump\t// out\n    /* \"#utility.yul\":2182:2502   */\ntag_10:\n    /* \"#utility.yul\":2226:2232   */\n  0x00\n    /* \"#utility.yul\":2263:2264   */\n  0x02\n    /* \"#utility.yul\":2257:2261   */\n  dup3\n    /* \"#utility.yul\":2253:2265   */\n  div\n    /* \"#utility.yul\":2243:2265   */\n  swap1\n  pop\n    /* \"#utility.yul\":2310:2311   */\n  0x01\n    /* \"#utility.yul\":2304:2308   */\n  dup3\n    /* \"#utility.yul\":2300:2312   */\n  and\n    /* \"#utility.yul\":2331:2349   */\n  dup1\n    /* \"#utility.yul\":2321:2402   */\n  tag_64\n  jumpi\n    /* \"#utility.yul\":2387:2391   */\n  0x7f\n    /* \"#utility.yul\":2379:2385   */\n  dup3\n    /* \"#utility.yul\":2375:2392   */\n  and\n    /* \"#utility.yul\":2365:2392   */\n  swap2\n  pop\n    /* \"#utility.yul\":2321:2402   */\ntag_64:\n    /* \"#utility.yul\":2449:2451   */\n  0x20\n    /* \"#utility.yul\":2441:2447   */\n  dup3\n    /* \"#utility.yul\":2438:2452   */\n  lt\n    /* \"#utility.yul\":2418:2436   */\n  dup2\n    /* \"#utility.yul\":2415:2453   */\n  eq\n    /* \"#utility.yul\":2412:2496   */\n  iszero\n  tag_65\n  jumpi\n    /* \"#utility.yul\":2468:2486   */\n  tag_66\n  tag_67\n  jump\t// in\ntag_66:\n    /* \"#utility.yul\":2412:2496   */\ntag_65:\n    /* \"#utility.yul\":2233:2502   */\n  pop\n    /* \"#utility.yul\":2182:2502   */\n  swap2\n  swap1\n  pop\n  jump\t// out\n    /* \"#utility.yul\":2508:2789   */\ntag_50:\n    /* \"#utility.yul\":2591:2618   */\n  tag_69\n    /* \"#utility.yul\":2613:2617   */\n  dup3\n    /* \"#utility.yul\":2591:2618   */\n  tag_57\n  jump\t// in\ntag_69:\n    /* \"#utility.yul\":2583:2589   */\n  dup2\n    /* \"#utility.yul\":2579:2619   */\n  add\n    /* \"#utility.yul\":2721:2727   */\n  dup2\n    /* \"#utility.yul\":2709:2719   */\n  dup2\n    /* \"#utility.yul\":2706:2728   */\n  lt\n    /* \"#utility.yul\":2685:2703   */\n  0xffffffffffffffff\n    /* \"#utility.yul\":2673:2683   */\n  dup3\n    /* \"#utility.yul\":2670:2704   */\n  gt\n    /* \"#utility.yul\":2667:2729   */\n  or\n    /* \"#utility.yul\":2664:2752   */\n  iszero\n  tag_70\n  jumpi\n    /* \"#utility.yul\":2732:2750   */\n  tag_71\n  tag_55\n  jump\t// in\ntag_71:\n    /* \"#utility.yul\":2664:2752   */\ntag_70:\n    /* \"#utility.yul\":2772:2782   */\n  dup1\n    /* \"#utility.yul\":2768:2770   */\n  0x40\n    /* \"#utility.yul\":2761:2783   */\n  mstore\n    /* \"#utility.yul\":2551:2789   */\n  pop\n    /* \"#utility.yul\":2508:2789   */\n  pop\n  pop\n  jump\t// out\n    /* \"#utility.yul\":2795:2975   */\ntag_67:\n    /* \"#utility.yul\":2843:2920   */\n  0x4e487b7100000000000000000000000000000000000000000000000000000000\n    /* \"#utility.yul\":2840:2841   */\n  0x00\n    /* \"#utility.yul\":2833:2921   */\n  mstore\n    /* \"#utility.yul\":2940:2944   */\n  0x22\n    /* \"#utility.yul\":2937:2938   */\n  0x04\n    /* \"#utility.yul\":2930:2945   */\n  mstore\n    /* \"#utility.yul\":2964:2968   */\n  0x24\n    /* \"#utility.yul\":2961:2962   */\n  0x00\n    /* \"#utility.yul\":2954:2969   */\n  revert\n    /* \"#utility.yul\":2981:3161   */\ntag_55:\n    /* \"#utility.yul\":3029:3106   */\n  0x4e487b7100000000000000000000000000000000000000000000000000000000\n    /* \"#utility.yul\":3026:3027   */\n  0x00\n    /* \"#utility.yul\":3019:3107   */\n  mstore\n    /* \"#utility.yul\":3126:3130   */\n  0x41\n    /* \"#utility.yul\":3123:3124   */\n  0x04\n    /* \"#utility.yul\":3116:3131   */\n  mstore\n    /* \"#utility.yul\":3150:3154   */\n  0x24\n    /* \"#utility.yul\":3147:3148   */\n  0x00\n    /* \"#utility.yul\":3140:3155   */\n  revert\n    /* \"#utility.yul\":3167:3284   */\ntag_36:\n    /* \"#utility.yul\":3276:3277   */\n  0x00\n    /* \"#utility.yul\":3273:3274   */\n  dup1\n    /* \"#utility.yul\":3266:3278   */\n  revert\n    /* \"#utility.yul\":3290:3407   */\ntag_29:\n    /* \"#utility.yul\":3399:3400   */\n  0x00\n    /* \"#utility.yul\":3396:3397   */\n  dup1\n    /* \"#utility.yul\":3389:3401   */\n  revert\n    /* \"#utility.yul\":3413:3530   */\ntag_44:\n    /* \"#utility.yul\":3522:3523   */\n  0x00\n    /* \"#utility.yul\":3519:3520   */\n  dup1\n    /* \"#utility.yul\":3512:3524   */\n  revert\n    /* \"#utility.yul\":3536:3653   */\ntag_41:\n    /* \"#utility.yul\":3645:3646   */\n  0x00\n    /* \"#utility.yul\":3642:3643   */\n  dup1\n    /* \"#utility.yul\":3635:3647   */\n  revert\n    /* \"#utility.yul\":3659:3761   */\ntag_57:\n    /* \"#utility.yul\":3700:3706   */\n  0x00\n    /* \"#utility.yul\":3751:3753   */\n  0x1f\n    /* \"#utility.yul\":3747:3754   */\n  not\n    /* \"#utility.yul\":3742:3744   */\n  0x1f\n    /* \"#utility.yul\":3735:3740   */\n  dup4\n    /* \"#utility.yul\":3731:3745   */\n  add\n    /* \"#utility.yul\":3727:3755   */\n  and\n    /* \"#utility.yul\":3717:3755   */\n  swap1\n  pop\n    /* \"#utility.yul\":3659:3761   */\n  swap2\n  swap1\n  pop\n  jump\t// out\n    /* \"HelloWorld.sol\":70:446  contract HelloWorld {\r... */\ntag_8:\n  dataSize(sub_0)\n  dup1\n  dataOffset(sub_0)\n  0x00\n  codecopy\n  0x00\n  return\nstop\n\nsub_0: assembly {\n        /* \"HelloWorld.sol\":70:446  contract HelloWorld {\r... */\n      mstore(0x40, 0x80)\n      callvalue\n      dup1\n      iszero\n      tag_1\n      jumpi\n      0x00\n      dup1\n      revert\n    tag_1:\n      pop\n      jumpi(tag_2, lt(calldatasize, 0x04))\n      shr(0xe0, calldataload(0x00))\n      dup1\n      0x3d7403a3\n      eq\n      tag_3\n      jumpi\n      dup1\n      0xe21f37ce\n      eq\n      tag_4\n      jumpi\n    tag_2:\n      0x00\n      dup1\n      revert\n        /* \"HelloWorld.sol\":267:443  function update(string memory newmesssage) public {\r... */\n    tag_3:\n      tag_5\n      0x04\n      dup1\n      calldatasize\n      sub\n      dup2\n      add\n      swap1\n      tag_6\n      swap2\n      swap1\n      tag_7\n      jump\t// in\n    tag_6:\n      tag_8\n      jump\t// in\n    tag_5:\n      stop\n        /* \"HelloWorld.sol\":154:175  string public message */\n    tag_4:\n      tag_9\n      tag_10\n      jump\t// in\n    tag_9:\n      mload(0x40)\n      tag_11\n      swap2\n      swap1\n      tag_12\n      jump\t// in\n    tag_11:\n      mload(0x40)\n      dup1\n      swap2\n      sub\n      swap1\n      return\n        /* \"HelloWorld.sol\":267:443  function update(string memory newmesssage) public {\r... */\n    tag_8:\n        /* \"HelloWorld.sol\":326:346  string memory oldmsg */\n      0x00\n        /* \"HelloWorld.sol\":349:356  message */\n      dup1\n        /* \"HelloWorld.sol\":326:356  string memory oldmsg = message */\n      dup1\n      sload\n      tag_14\n      swap1\n      tag_15\n      jump\t// in\n    tag_14:\n      dup1\n      0x1f\n      add\n      0x20\n      dup1\n      swap2\n      div\n      mul\n      0x20\n      add\n      mload(0x40)\n      swap1\n      dup2\n      add\n      0x40\n      mstore\n      dup1\n      swap3\n      swap2\n      swap1\n      dup2\n      dup2\n      mstore\n      0x20\n      add\n      dup3\n      dup1\n      sload\n      tag_16\n      swap1\n      tag_15\n      jump\t// in\n    tag_16:\n      dup1\n      iszero\n      tag_17\n      jumpi\n      dup1\n      0x1f\n      lt\n      tag_18\n      jumpi\n      0x0100\n      dup1\n      dup4\n      sload\n      div\n      mul\n      dup4\n      mstore\n      swap2\n      0x20\n      add\n      swap2\n      jump(tag_17)\n    tag_18:\n      dup3\n      add\n      swap2\n      swap1\n      0x00\n      mstore\n      keccak256(0x00, 0x20)\n      swap1\n    tag_19:\n      dup2\n      sload\n      dup2\n      mstore\n      swap1\n      0x01\n      add\n      swap1\n      0x20\n      add\n      dup1\n      dup4\n      gt\n      tag_19\n      jumpi\n      dup3\n      swap1\n      sub\n      0x1f\n      and\n      dup3\n      add\n      swap2\n    tag_17:\n      pop\n      pop\n      pop\n      pop\n      pop\n      swap1\n      pop\n        /* \"HelloWorld.sol\":375:386  newmesssage */\n      dup2\n        /* \"HelloWorld.sol\":365:372  message */\n      0x00\n        /* \"HelloWorld.sol\":365:386  message = newmesssage */\n      swap1\n      dup1\n      mload\n      swap1\n      0x20\n      add\n      swap1\n      tag_20\n      swap3\n      swap2\n      swap1\n      tag_21\n      jump\t// in\n    tag_20:\n      pop\n        /* \"HelloWorld.sol\":400:435  messagechanged(oldmsg, newmesssage) */\n      0x0fef6941e28a1f2e3fe516a5c6ffc075fe9c7cbe153860ca76439aa8493a4f99\n        /* \"HelloWorld.sol\":415:421  oldmsg */\n      dup2\n        /* \"HelloWorld.sol\":423:434  newmesssage */\n      dup4\n        /* \"HelloWorld.sol\":400:435  messagechanged(oldmsg, newmesssage) */\n      mload(0x40)\n      tag_22\n      swap3\n      swap2\n      swap1\n      tag_23\n      jump\t// in\n    tag_22:\n      mload(0x40)\n      dup1\n      swap2\n      sub\n      swap1\n      log1\n        /* \"HelloWorld.sol\":317:443  {\r... */\n      pop\n        /* \"HelloWorld.sol\":267:443  function update(string memory newmesssage) public {\r... */\n      pop\n      jump\t// out\n        /* \"HelloWorld.sol\":154:175  string public message */\n    tag_10:\n      0x00\n      dup1\n      sload\n      tag_24\n      swap1\n      tag_15\n      jump\t// in\n    tag_24:\n      dup1\n      0x1f\n      add\n      0x20\n      dup1\n      swap2\n      div\n      mul\n      0x20\n      add\n      mload(0x40)\n      swap1\n      dup2\n      add\n      0x40\n      mstore\n      dup1\n      swap3\n      swap2\n      swap1\n      dup2\n      dup2\n      mstore\n      0x20\n      add\n      dup3\n      dup1\n      sload\n      tag_25\n      swap1\n      tag_15\n      jump\t// in\n    tag_25:\n      dup1\n      iszero\n      tag_26\n      jumpi\n      dup1\n      0x1f\n      lt\n      tag_27\n      jumpi\n      0x0100\n      dup1\n      dup4\n      sload\n      div\n      mul\n      dup4\n      mstore\n      swap2\n      0x20\n      add\n      swap2\n      jump(tag_26)\n    tag_27:\n      dup3\n      add\n      swap2\n      swap1\n      0x00\n      mstore\n      keccak256(0x00, 0x20)\n      swap1\n    tag_28:\n      dup2\n      sload\n      dup2\n      mstore\n      swap1\n      0x01\n      add\n      swap1\n      0x20\n      add\n      dup1\n      dup4\n      gt\n      tag_28\n      jumpi\n      dup3\n      swap1\n      sub\n      0x1f\n      and\n      dup3\n      add\n      swap2\n    tag_26:\n      pop\n      pop\n      pop\n      pop\n      pop\n      dup2\n      jump\t// out\n    tag_21:\n      dup3\n      dup1\n      sload\n      tag_29\n      swap1\n      tag_15\n      jump\t// in\n    tag_29:\n      swap1\n      0x00\n      mstore\n      keccak256(0x00, 0x20)\n      swap1\n      0x1f\n      add\n      0x20\n      swap1\n      div\n      dup2\n      add\n      swap3\n      dup3\n      tag_31\n      jumpi\n      0x00\n      dup6\n      sstore\n      jump(tag_30)\n    tag_31:\n      dup3\n      0x1f\n      lt\n      tag_32\n      jumpi\n      dup1\n      mload\n      not(0xff)\n      and\n      dup4\n      dup1\n      add\n      or\n      dup6\n      sstore\n      jump(tag_30)\n    tag_32:\n      dup3\n      dup1\n      add\n      0x01\n      add\n      dup6\n      sstore\n      dup3\n      iszero\n      tag_30\n      jumpi\n      swap2\n      dup3\n      add\n    tag_33:\n      dup3\n      dup2\n      gt\n      iszero\n      tag_34\n      jumpi\n      dup3\n      mload\n      dup3\n      sstore\n      swap2\n      0x20\n      add\n      swap2\n      swap1\n      0x01\n      add\n      swap1\n      jump(tag_33)\n    tag_34:\n    tag_30:\n      pop\n      swap1\n      pop\n      tag_35\n      swap2\n      swap1\n      tag_36\n      jump\t// in\n    tag_35:\n      pop\n      swap1\n      jump\t// out\n    tag_36:\n    tag_37:\n      dup1\n      dup3\n      gt\n      iszero\n      tag_38\n      jumpi\n      0x00\n      dup2\n      0x00\n      swap1\n      sstore\n      pop\n      0x01\n      add\n      jump(tag_37)\n    tag_38:\n      pop\n      swap1\n      jump\t// out\n        /* \"#utility.yul\":7:419   */\n    tag_40:\n        /* \"#utility.yul\":85:90   */\n      0x00\n        /* \"#utility.yul\":110:176   */\n      tag_42\n        /* \"#utility.yul\":126:175   */\n      tag_43\n        /* \"#utility.yul\":168:174   */\n      dup5\n        /* \"#utility.yul\":126:175   */\n      tag_44\n      jump\t// in\n    tag_43:\n        /* \"#utility.yul\":110:176   */\n      tag_45\n      jump\t// in\n    tag_42:\n        /* \"#utility.yul\":101:176   */\n      swap1\n      pop\n        /* \"#utility.yul\":199:205   */\n      dup3\n        /* \"#utility.yul\":192:197   */\n      dup2\n        /* \"#utility.yul\":185:206   */\n      mstore\n        /* \"#utility.yul\":237:241   */\n      0x20\n        /* \"#utility.yul\":230:235   */\n      dup2\n        /* \"#utility.yul\":226:242   */\n      add\n        /* \"#utility.yul\":275:278   */\n      dup5\n        /* \"#utility.yul\":266:272   */\n      dup5\n        /* \"#utility.yul\":261:264   */\n      dup5\n        /* \"#utility.yul\":257:273   */\n      add\n        /* \"#utility.yul\":254:279   */\n      gt\n        /* \"#utility.yul\":251:363   */\n      iszero\n      tag_46\n      jumpi\n        /* \"#utility.yul\":282:361   */\n      tag_47\n      tag_48\n      jump\t// in\n    tag_47:\n        /* \"#utility.yul\":251:363   */\n    tag_46:\n        /* \"#utility.yul\":372:413   */\n      tag_49\n        /* \"#utility.yul\":406:412   */\n      dup5\n        /* \"#utility.yul\":401:404   */\n      dup3\n        /* \"#utility.yul\":396:399   */\n      dup6\n        /* \"#utility.yul\":372:413   */\n      tag_50\n      jump\t// in\n    tag_49:\n        /* \"#utility.yul\":91:419   */\n      pop\n        /* \"#utility.yul\":7:419   */\n      swap4\n      swap3\n      pop\n      pop\n      pop\n      jump\t// out\n        /* \"#utility.yul\":439:779   */\n    tag_51:\n        /* \"#utility.yul\":495:500   */\n      0x00\n        /* \"#utility.yul\":544:547   */\n      dup3\n        /* \"#utility.yul\":537:541   */\n      0x1f\n        /* \"#utility.yul\":529:535   */\n      dup4\n        /* \"#utility.yul\":525:542   */\n      add\n        /* \"#utility.yul\":521:548   */\n      slt\n        /* \"#utility.yul\":511:633   */\n      tag_53\n      jumpi\n        /* \"#utility.yul\":552:631   */\n      tag_54\n      tag_55\n      jump\t// in\n    tag_54:\n        /* \"#utility.yul\":511:633   */\n    tag_53:\n        /* \"#utility.yul\":669:675   */\n      dup2\n        /* \"#utility.yul\":656:676   */\n      calldataload\n        /* \"#utility.yul\":694:773   */\n      tag_56\n        /* \"#utility.yul\":769:772   */\n      dup5\n        /* \"#utility.yul\":761:767   */\n      dup3\n        /* \"#utility.yul\":754:758   */\n      0x20\n        /* \"#utility.yul\":746:752   */\n      dup7\n        /* \"#utility.yul\":742:759   */\n      add\n        /* \"#utility.yul\":694:773   */\n      tag_40\n      jump\t// in\n    tag_56:\n        /* \"#utility.yul\":685:773   */\n      swap2\n      pop\n        /* \"#utility.yul\":501:779   */\n      pop\n        /* \"#utility.yul\":439:779   */\n      swap3\n      swap2\n      pop\n      pop\n      jump\t// out\n        /* \"#utility.yul\":785:1294   */\n    tag_7:\n        /* \"#utility.yul\":854:860   */\n      0x00\n        /* \"#utility.yul\":903:905   */\n      0x20\n        /* \"#utility.yul\":891:900   */\n      dup3\n        /* \"#utility.yul\":882:889   */\n      dup5\n        /* \"#utility.yul\":878:901   */\n      sub\n        /* \"#utility.yul\":874:906   */\n      slt\n        /* \"#utility.yul\":871:990   */\n      iszero\n      tag_58\n      jumpi\n        /* \"#utility.yul\":909:988   */\n      tag_59\n      tag_60\n      jump\t// in\n    tag_59:\n        /* \"#utility.yul\":871:990   */\n    tag_58:\n        /* \"#utility.yul\":1057:1058   */\n      0x00\n        /* \"#utility.yul\":1046:1055   */\n      dup3\n        /* \"#utility.yul\":1042:1059   */\n      add\n        /* \"#utility.yul\":1029:1060   */\n      calldataload\n        /* \"#utility.yul\":1087:1105   */\n      0xffffffffffffffff\n        /* \"#utility.yul\":1079:1085   */\n      dup2\n        /* \"#utility.yul\":1076:1106   */\n      gt\n        /* \"#utility.yul\":1073:1190   */\n      iszero\n      tag_61\n      jumpi\n        /* \"#utility.yul\":1109:1188   */\n      tag_62\n      tag_63\n      jump\t// in\n    tag_62:\n        /* \"#utility.yul\":1073:1190   */\n    tag_61:\n        /* \"#utility.yul\":1214:1277   */\n      tag_64\n        /* \"#utility.yul\":1269:1276   */\n      dup5\n        /* \"#utility.yul\":1260:1266   */\n      dup3\n        /* \"#utility.yul\":1249:1258   */\n      dup6\n        /* \"#utility.yul\":1245:1267   */\n      add\n        /* \"#utility.yul\":1214:1277   */\n      tag_51\n      jump\t// in\n    tag_64:\n        /* \"#utility.yul\":1204:1277   */\n      swap2\n      pop\n        /* \"#utility.yul\":1000:1287   */\n      pop\n        /* \"#utility.yul\":785:1294   */\n      swap3\n      swap2\n      pop\n      pop\n      jump\t// out\n        /* \"#utility.yul\":1300:1664   */\n    tag_65:\n        /* \"#utility.yul\":1388:1391   */\n      0x00\n        /* \"#utility.yul\":1416:1455   */\n      tag_67\n        /* \"#utility.yul\":1449:1454   */\n      dup3\n        /* \"#utility.yul\":1416:1455   */\n      tag_68\n      jump\t// in\n    tag_67:\n        /* \"#utility.yul\":1471:1542   */\n      tag_69\n        /* \"#utility.yul\":1535:1541   */\n      dup2\n        /* \"#utility.yul\":1530:1533   */\n      dup6\n        /* \"#utility.yul\":1471:1542   */\n      tag_70\n      jump\t// in\n    tag_69:\n        /* \"#utility.yul\":1464:1542   */\n      swap4\n      pop\n        /* \"#utility.yul\":1551:1603   */\n      tag_71\n        /* \"#utility.yul\":1596:1602   */\n      dup2\n        /* \"#utility.yul\":1591:1594   */\n      dup6\n        /* \"#utility.yul\":1584:1588   */\n      0x20\n        /* \"#utility.yul\":1577:1582   */\n      dup7\n        /* \"#utility.yul\":1573:1589   */\n      add\n        /* \"#utility.yul\":1551:1603   */\n      tag_72\n      jump\t// in\n    tag_71:\n        /* \"#utility.yul\":1628:1657   */\n      tag_73\n        /* \"#utility.yul\":1650:1656   */\n      dup2\n        /* \"#utility.yul\":1628:1657   */\n      tag_74\n      jump\t// in\n    tag_73:\n        /* \"#utility.yul\":1623:1626   */\n      dup5\n        /* \"#utility.yul\":1619:1658   */\n      add\n        /* \"#utility.yul\":1612:1658   */\n      swap2\n      pop\n        /* \"#utility.yul\":1392:1664   */\n      pop\n        /* \"#utility.yul\":1300:1664   */\n      swap3\n      swap2\n      pop\n      pop\n      jump\t// out\n        /* \"#utility.yul\":1670:1983   */\n    tag_12:\n        /* \"#utility.yul\":1783:1787   */\n      0x00\n        /* \"#utility.yul\":1821:1823   */\n      0x20\n        /* \"#utility.yul\":1810:1819   */\n      dup3\n        /* \"#utility.yul\":1806:1824   */\n      add\n        /* \"#utility.yul\":1798:1824   */\n      swap1\n      pop\n        /* \"#utility.yul\":1870:1879   */\n      dup2\n        /* \"#utility.yul\":1864:1868   */\n      dup2\n        /* \"#utility.yul\":1860:1880   */\n      sub\n        /* \"#utility.yul\":1856:1857   */\n      0x00\n        /* \"#utility.yul\":1845:1854   */\n      dup4\n        /* \"#utility.yul\":1841:1858   */\n      add\n        /* \"#utility.yul\":1834:1881   */\n      mstore\n        /* \"#utility.yul\":1898:1976   */\n      tag_76\n        /* \"#utility.yul\":1971:1975   */\n      dup2\n        /* \"#utility.yul\":1962:1968   */\n      dup5\n        /* \"#utility.yul\":1898:1976   */\n      tag_65\n      jump\t// in\n    tag_76:\n        /* \"#utility.yul\":1890:1976   */\n      swap1\n      pop\n        /* \"#utility.yul\":1670:1983   */\n      swap3\n      swap2\n      pop\n      pop\n      jump\t// out\n        /* \"#utility.yul\":1989:2503   */\n    tag_23:\n        /* \"#utility.yul\":2150:2154   */\n      0x00\n        /* \"#utility.yul\":2188:2190   */\n      0x40\n        /* \"#utility.yul\":2177:2186   */\n      dup3\n        /* \"#utility.yul\":2173:2191   */\n      add\n        /* \"#utility.yul\":2165:2191   */\n      swap1\n      pop\n        /* \"#utility.yul\":2237:2246   */\n      dup2\n        /* \"#utility.yul\":2231:2235   */\n      dup2\n        /* \"#utility.yul\":2227:2247   */\n      sub\n        /* \"#utility.yul\":2223:2224   */\n      0x00\n        /* \"#utility.yul\":2212:2221   */\n      dup4\n        /* \"#utility.yul\":2208:2225   */\n      add\n        /* \"#utility.yul\":2201:2248   */\n      mstore\n        /* \"#utility.yul\":2265:2343   */\n      tag_78\n        /* \"#utility.yul\":2338:2342   */\n      dup2\n        /* \"#utility.yul\":2329:2335   */\n      dup6\n        /* \"#utility.yul\":2265:2343   */\n      tag_65\n      jump\t// in\n    tag_78:\n        /* \"#utility.yul\":2257:2343   */\n      swap1\n      pop\n        /* \"#utility.yul\":2390:2399   */\n      dup2\n        /* \"#utility.yul\":2384:2388   */\n      dup2\n        /* \"#utility.yul\":2380:2400   */\n      sub\n        /* \"#utility.yul\":2375:2377   */\n      0x20\n        /* \"#utility.yul\":2364:2373   */\n      dup4\n        /* \"#utility.yul\":2360:2378   */\n      add\n        /* \"#utility.yul\":2353:2401   */\n      mstore\n        /* \"#utility.yul\":2418:2496   */\n      tag_79\n        /* \"#utility.yul\":2491:2495   */\n      dup2\n        /* \"#utility.yul\":2482:2488   */\n      dup5\n        /* \"#utility.yul\":2418:2496   */\n      tag_65\n      jump\t// in\n    tag_79:\n        /* \"#utility.yul\":2410:2496   */\n      swap1\n      pop\n        /* \"#utility.yul\":1989:2503   */\n      swap4\n      swap3\n      pop\n      pop\n      pop\n      jump\t// out\n        /* \"#utility.yul\":2509:2638   */\n    tag_45:\n        /* \"#utility.yul\":2543:2549   */\n      0x00\n        /* \"#utility.yul\":2570:2590   */\n      tag_81\n      tag_82\n      jump\t// in\n    tag_81:\n        /* \"#utility.yul\":2560:2590   */\n      swap1\n      pop\n        /* \"#utility.yul\":2599:2632   */\n      tag_83\n        /* \"#utility.yul\":2627:2631   */\n      dup3\n        /* \"#utility.yul\":2619:2625   */\n      dup3\n        /* \"#utility.yul\":2599:2632   */\n      tag_84\n      jump\t// in\n    tag_83:\n        /* \"#utility.yul\":2509:2638   */\n      swap2\n      swap1\n      pop\n      jump\t// out\n        /* \"#utility.yul\":2644:2719   */\n    tag_82:\n        /* \"#utility.yul\":2677:2683   */\n      0x00\n        /* \"#utility.yul\":2710:2712   */\n      0x40\n        /* \"#utility.yul\":2704:2713   */\n      mload\n        /* \"#utility.yul\":2694:2713   */\n      swap1\n      pop\n        /* \"#utility.yul\":2644:2719   */\n      swap1\n      jump\t// out\n        /* \"#utility.yul\":2725:3033   */\n    tag_44:\n        /* \"#utility.yul\":2787:2791   */\n      0x00\n        /* \"#utility.yul\":2877:2895   */\n      0xffffffffffffffff\n        /* \"#utility.yul\":2869:2875   */\n      dup3\n        /* \"#utility.yul\":2866:2896   */\n      gt\n        /* \"#utility.yul\":2863:2919   */\n      iszero\n      tag_87\n      jumpi\n        /* \"#utility.yul\":2899:2917   */\n      tag_88\n      tag_89\n      jump\t// in\n    tag_88:\n        /* \"#utility.yul\":2863:2919   */\n    tag_87:\n        /* \"#utility.yul\":2937:2966   */\n      tag_90\n        /* \"#utility.yul\":2959:2965   */\n      dup3\n        /* \"#utility.yul\":2937:2966   */\n      tag_74\n      jump\t// in\n    tag_90:\n        /* \"#utility.yul\":2929:2966   */\n      swap1\n      pop\n        /* \"#utility.yul\":3021:3025   */\n      0x20\n        /* \"#utility.yul\":3015:3019   */\n      dup2\n        /* \"#utility.yul\":3011:3026   */\n      add\n        /* \"#utility.yul\":3003:3026   */\n      swap1\n      pop\n        /* \"#utility.yul\":2725:3033   */\n      swap2\n      swap1\n      pop\n      jump\t// out\n        /* \"#utility.yul\":3039:3138   */\n    tag_68:\n        /* \"#utility.yul\":3091:3097   */\n      0x00\n        /* \"#utility.yul\":3125:3130   */\n      dup2\n        /* \"#utility.yul\":3119:3131   */\n      mload\n        /* \"#utility.yul\":3109:3131   */\n      swap1\n      pop\n        /* \"#utility.yul\":3039:3138   */\n      swap2\n      swap1\n      pop\n      jump\t// out\n        /* \"#utility.yul\":3144:3313   */\n    tag_70:\n        /* \"#utility.yul\":3228:3239   */\n      0x00\n        /* \"#utility.yul\":3262:3268   */\n      dup3\n        /* \"#utility.yul\":3257:3260   */\n      dup3\n        /* \"#utility.yul\":3250:3269   */\n      mstore\n        /* \"#utility.yul\":3302:3306   */\n      0x20\n        /* \"#utility.yul\":3297:3300   */\n      dup3\n        /* \"#utility.yul\":3293:3307   */\n      add\n        /* \"#utility.yul\":3278:3307   */\n      swap1\n      pop\n        /* \"#utility.yul\":3144:3313   */\n      swap3\n      swap2\n      pop\n      pop\n      jump\t// out\n        /* \"#utility.yul\":3319:3473   */\n    tag_50:\n        /* \"#utility.yul\":3403:3409   */\n      dup3\n        /* \"#utility.yul\":3398:3401   */\n      dup2\n        /* \"#utility.yul\":3393:3396   */\n      dup4\n        /* \"#utility.yul\":3380:3410   */\n      calldatacopy\n        /* \"#utility.yul\":3465:3466   */\n      0x00\n        /* \"#utility.yul\":3456:3462   */\n      dup4\n        /* \"#utility.yul\":3451:3454   */\n      dup4\n        /* \"#utility.yul\":3447:3463   */\n      add\n        /* \"#utility.yul\":3440:3467   */\n      mstore\n        /* \"#utility.yul\":3319:3473   */\n      pop\n      pop\n      pop\n      jump\t// out\n        /* \"#utility.yul\":3479:3786   */\n    tag_72:\n        /* \"#utility.yul\":3547:3548   */\n      0x00\n        /* \"#utility.yul\":3557:3670   */\n    tag_95:\n        /* \"#utility.yul\":3571:3577   */\n      dup4\n        /* \"#utility.yul\":3568:3569   */\n      dup2\n        /* \"#utility.yul\":3565:3578   */\n      lt\n        /* \"#utility.yul\":3557:3670   */\n      iszero\n      tag_97\n      jumpi\n        /* \"#utility.yul\":3656:3657   */\n      dup1\n        /* \"#utility.yul\":3651:3654   */\n      dup3\n        /* \"#utility.yul\":3647:3658   */\n      add\n        /* \"#utility.yul\":3641:3659   */\n      mload\n        /* \"#utility.yul\":3637:3638   */\n      dup2\n        /* \"#utility.yul\":3632:3635   */\n      dup5\n        /* \"#utility.yul\":3628:3639   */\n      add\n        /* \"#utility.yul\":3621:3660   */\n      mstore\n        /* \"#utility.yul\":3593:3595   */\n      0x20\n        /* \"#utility.yul\":3590:3591   */\n      dup2\n        /* \"#utility.yul\":3586:3596   */\n      add\n        /* \"#utility.yul\":3581:3596   */\n      swap1\n      pop\n        /* \"#utility.yul\":3557:3670   */\n      jump(tag_95)\n    tag_97:\n        /* \"#utility.yul\":3688:3694   */\n      dup4\n        /* \"#utility.yul\":3685:3686   */\n      dup2\n        /* \"#utility.yul\":3682:3695   */\n      gt\n        /* \"#utility.yul\":3679:3780   */\n      iszero\n      tag_98\n      jumpi\n        /* \"#utility.yul\":3768:3769   */\n      0x00\n        /* \"#utility.yul\":3759:3765   */\n      dup5\n        /* \"#utility.yul\":3754:3757   */\n      dup5\n        /* \"#utility.yul\":3750:3766   */\n      add\n        /* \"#utility.yul\":3743:3770   */\n      mstore\n        /* \"#utility.yul\":3679:3780   */\n    tag_98:\n        /* \"#utility.yul\":3528:3786   */\n      pop\n        /* \"#utility.yul\":3479:3786   */\n      pop\n      pop\n      pop\n      jump\t// out\n        /* \"#utility.yul\":3792:4112   */\n    tag_15:\n        /* \"#utility.yul\":3836:3842   */\n      0x00\n        /* \"#utility.yul\":3873:3874   */\n      0x02\n        /* \"#utility.yul\":3867:3871   */\n      dup3\n        /* \"#utility.yul\":3863:3875   */\n      div\n        /* \"#utility.yul\":3853:3875   */\n      swap1\n      pop\n        /* \"#utility.yul\":3920:3921   */\n      0x01\n        /* \"#utility.yul\":3914:3918   */\n      dup3\n        /* \"#utility.yul\":3910:3922   */\n      and\n        /* \"#utility.yul\":3941:3959   */\n      dup1\n        /* \"#utility.yul\":3931:4012   */\n      tag_100\n      jumpi\n        /* \"#utility.yul\":3997:4001   */\n      0x7f\n        /* \"#utility.yul\":3989:3995   */\n      dup3\n        /* \"#utility.yul\":3985:4002   */\n      and\n        /* \"#utility.yul\":3975:4002   */\n      swap2\n      pop\n        /* \"#utility.yul\":3931:4012   */\n    tag_100:\n        /* \"#utility.yul\":4059:4061   */\n      0x20\n        /* \"#utility.yul\":4051:4057   */\n      dup3\n        /* \"#utility.yul\":4048:4062   */\n      lt\n        /* \"#utility.yul\":4028:4046   */\n      dup2\n        /* \"#utility.yul\":4025:4063   */\n      eq\n        /* \"#utility.yul\":4022:4106   */\n      iszero\n      tag_101\n      jumpi\n        /* \"#utility.yul\":4078:4096   */\n      tag_102\n      tag_103\n      jump\t// in\n    tag_102:\n        /* \"#utility.yul\":4022:4106   */\n    tag_101:\n        /* \"#utility.yul\":3843:4112   */\n      pop\n        /* \"#utility.yul\":3792:4112   */\n      swap2\n      swap1\n      pop\n      jump\t// out\n        /* \"#utility.yul\":4118:4399   */\n    tag_84:\n        /* \"#utility.yul\":4201:4228   */\n      tag_105\n        /* \"#utility.yul\":4223:4227   */\n      dup3\n        /* \"#utility.yul\":4201:4228   */\n      tag_74\n      jump\t// in\n    tag_105:\n        /* \"#utility.yul\":4193:4199   */\n      dup2\n        /* \"#utility.yul\":4189:4229   */\n      add\n        /* \"#utility.yul\":4331:4337   */\n      dup2\n        /* \"#utility.yul\":4319:4329   */\n      dup2\n        /* \"#utility.yul\":4316:4338   */\n      lt\n        /* \"#utility.yul\":4295:4313   */\n      0xffffffffffffffff\n        /* \"#utility.yul\":4283:4293   */\n      dup3\n        /* \"#utility.yul\":4280:4314   */\n      gt\n        /* \"#utility.yul\":4277:4339   */\n      or\n        /* \"#utility.yul\":4274:4362   */\n      iszero\n      tag_106\n      jumpi\n        /* \"#utility.yul\":4342:4360   */\n      tag_107\n      tag_89\n      jump\t// in\n    tag_107:\n        /* \"#utility.yul\":4274:4362   */\n    tag_106:\n        /* \"#utility.yul\":4382:4392   */\n      dup1\n        /* \"#utility.yul\":4378:4380   */\n      0x40\n        /* \"#utility.yul\":4371:4393   */\n      mstore\n        /* \"#utility.yul\":4161:4399   */\n      pop\n        /* \"#utility.yul\":4118:4399   */\n      pop\n      pop\n      jump\t// out\n        /* \"#utility.yul\":4405:4585   */\n    tag_103:\n        /* \"#utility.yul\":4453:4530   */\n      0x4e487b7100000000000000000000000000000000000000000000000000000000\n        /* \"#utility.yul\":4450:4451   */\n      0x00\n        /* \"#utility.yul\":4443:4531   */\n      mstore\n        /* \"#utility.yul\":4550:4554   */\n      0x22\n        /* \"#utility.yul\":4547:4548   */\n      0x04\n        /* \"#utility.yul\":4540:4555   */\n      mstore\n        /* \"#utility.yul\":4574:4578   */\n      0x24\n        /* \"#utility.yul\":4571:4572   */\n      0x00\n        /* \"#utility.yul\":4564:4579   */\n      revert\n        /* \"#utility.yul\":4591:4771   */\n    tag_89:\n        /* \"#utility.yul\":4639:4716   */\n      0x4e487b7100000000000000000000000000000000000000000000000000000000\n        /* \"#utility.yul\":4636:4637   */\n      0x00\n        /* \"#utility.yul\":4629:4717   */\n      mstore\n        /* \"#utility.yul\":4736:4740   */\n      0x41\n        /* \"#utility.yul\":4733:4734   */\n      0x04\n        /* \"#utility.yul\":4726:4741   */\n      mstore\n        /* \"#utility.yul\":4760:4764   */\n      0x24\n        /* \"#utility.yul\":4757:4758   */\n      0x00\n        /* \"#utility.yul\":4750:4765   */\n      revert\n        /* \"#utility.yul\":4777:4894   */\n    tag_55:\n        /* \"#utility.yul\":4886:4887   */\n      0x00\n        /* \"#utility.yul\":4883:4884   */\n      dup1\n        /* \"#utility.yul\":4876:4888   */\n      revert\n        /* \"#utility.yul\":4900:5017   */\n    tag_48:\n        /* \"#utility.yul\":5009:5010   */\n      0x00\n        /* \"#utility.yul\":5006:5007   */\n      dup1\n        /* \"#utility.yul\":4999:5011   */\n      revert\n        /* \"#utility.yul\":5023:5140   */\n    tag_63:\n        /* \"#utility.yul\":5132:5133   */\n      0x00\n        /* \"#utility.yul\":5129:5130   */\n      dup1\n        /* \"#utility.yul\":5122:5134   */\n      revert\n        /* \"#utility.yul\":5146:5263   */\n    tag_60:\n        /* \"#utility.yul\":5255:5256   */\n      0x00\n        /* \"#utility.yul\":5252:5253   */\n      dup1\n        /* \"#utility.yul\":5245:5257   */\n      revert\n        /* \"#utility.yul\":5269:5371   */\n    tag_74:\n        /* \"#utility.yul\":5310:5316   */\n      0x00\n        /* \"#utility.yul\":5361:5363   */\n      0x1f\n        /* \"#utility.yul\":5357:5364   */\n      not\n        /* \"#utility.yul\":5352:5354   */\n      0x1f\n        /* \"#utility.yul\":5345:5350   */\n      dup4\n        /* \"#utility.yul\":5341:5355   */\n      add\n        /* \"#utility.yul\":5337:5365   */\n      and\n        /* \"#utility.yul\":5327:5365   */\n      swap1\n      pop\n        /* \"#utility.yul\":5269:5371   */\n      swap2\n      swap1\n      pop\n      jump\t// out\n\n    auxdata: 0xa2646970667358221220efa22c2f1be61ff545ba57cf5fc0f132d5b27b2cc7963089b866c0d7b8a8fe7d64736f6c63430008070033\n}\n",
				"bytecode": {
					"linkReferences": {},
					"object": "60806040523480156200001157600080fd5b506040516200090d3803806200090d833981810160405281019062000037919062000185565b80600090805190602001906200004f92919062000057565b50506200035a565b82805462000065906200026b565b90600052602060002090601f016020900481019282620000895760008555620000d5565b82601f10620000a457805160ff1916838001178555620000d5565b82800160010185558215620000d5579182015b82811115620000d4578251825591602001919060010190620000b7565b5b509050620000e49190620000e8565b5090565b5b8082111562000103576000816000905550600101620000e9565b5090565b60006200011e6200011884620001ff565b620001d6565b9050828152602081018484840111156200013d576200013c6200033a565b5b6200014a84828562000235565b509392505050565b600082601f8301126200016a576200016962000335565b5b81516200017c84826020860162000107565b91505092915050565b6000602082840312156200019e576200019d62000344565b5b600082015167ffffffffffffffff811115620001bf57620001be6200033f565b5b620001cd8482850162000152565b91505092915050565b6000620001e2620001f5565b9050620001f08282620002a1565b919050565b6000604051905090565b600067ffffffffffffffff8211156200021d576200021c62000306565b5b620002288262000349565b9050602081019050919050565b60005b838110156200025557808201518184015260208101905062000238565b8381111562000265576000848401525b50505050565b600060028204905060018216806200028457607f821691505b602082108114156200029b576200029a620002d7565b5b50919050565b620002ac8262000349565b810181811067ffffffffffffffff82111715620002ce57620002cd62000306565b5b80604052505050565b7f4e487b7100000000000000000000000000000000000000000000000000000000600052602260045260246000fd5b7f4e487b7100000000000000000000000000000000000000000000000000000000600052604160045260246000fd5b600080fd5b600080fd5b600080fd5b600080fd5b6000601f19601f8301169050919050565b6105a3806200036a6000396000f3fe608060405234801561001057600080fd5b50600436106100365760003560e01c80633d7403a31461003b578063e21f37ce14610057575b600080fd5b610055600480360381019061005091906102f8565b610075565b005b61005f610157565b60405161006c919061037a565b60405180910390f35b600080805461008390610487565b80601f01602080910402602001604051908101604052809291908181526020018280546100af90610487565b80156100fc5780601f106100d1576101008083540402835291602001916100fc565b820191906000526020600020905b8154815290600101906020018083116100df57829003601f168201915b5050505050905081600090805190602001906101199291906101e5565b507f0fef6941e28a1f2e3fe516a5c6ffc075fe9c7cbe153860ca76439aa8493a4f99818360405161014b92919061039c565b60405180910390a15050565b6000805461016490610487565b80601f016020809104026020016040519081016040528092919081815260200182805461019090610487565b80156101dd5780601f106101b2576101008083540402835291602001916101dd565b820191906000526020600020905b8154815290600101906020018083116101c057829003601f168201915b505050505081565b8280546101f190610487565b90600052602060002090601f016020900481019282610213576000855561025a565b82601f1061022c57805160ff191683800117855561025a565b8280016001018555821561025a579182015b8281111561025957825182559160200191906001019061023e565b5b509050610267919061026b565b5090565b5b8082111561028457600081600090555060010161026c565b5090565b600061029b610296846103f8565b6103d3565b9050828152602081018484840111156102b7576102b661054d565b5b6102c2848285610445565b509392505050565b600082601f8301126102df576102de610548565b5b81356102ef848260208601610288565b91505092915050565b60006020828403121561030e5761030d610557565b5b600082013567ffffffffffffffff81111561032c5761032b610552565b5b610338848285016102ca565b91505092915050565b600061034c82610429565b6103568185610434565b9350610366818560208601610454565b61036f8161055c565b840191505092915050565b600060208201905081810360008301526103948184610341565b905092915050565b600060408201905081810360008301526103b68185610341565b905081810360208301526103ca8184610341565b90509392505050565b60006103dd6103ee565b90506103e982826104b9565b919050565b6000604051905090565b600067ffffffffffffffff82111561041357610412610519565b5b61041c8261055c565b9050602081019050919050565b600081519050919050565b600082825260208201905092915050565b82818337600083830152505050565b60005b83811015610472578082015181840152602081019050610457565b83811115610481576000848401525b50505050565b6000600282049050600182168061049f57607f821691505b602082108114156104b3576104b26104ea565b5b50919050565b6104c28261055c565b810181811067ffffffffffffffff821117156104e1576104e0610519565b5b80604052505050565b7f4e487b7100000000000000000000000000000000000000000000000000000000600052602260045260246000fd5b7f4e487b7100000000000000000000000000000000000000000000000000000000600052604160045260246000fd5b600080fd5b600080fd5b600080fd5b600080fd5b6000601f19601f830116905091905056fea2646970667358221220efa22c2f1be61ff545ba57cf5fc0f132d5b27b2cc7963089b866c0d7b8a8fe7d64736f6c63430008070033",
					"opcodes": "PUSH1 0x80 PUSH1 0x40 MSTORE CALLVALUE DUP1 ISZERO PUSH3 0x11 JUMPI PUSH1 0x0 DUP1 REVERT JUMPDEST POP PUSH1 0x40 MLOAD PUSH3 0x90D CODESIZE SUB DUP1 PUSH3 0x90D DUP4 CODECOPY DUP2 DUP2 ADD PUSH1 0x40 MSTORE DUP2 ADD SWAP1 PUSH3 0x37 SWAP2 SWAP1 PUSH3 0x185 JUMP JUMPDEST DUP1 PUSH1 0x0 SWAP1 DUP1 MLOAD SWAP1 PUSH1 0x20 ADD SWAP1 PUSH3 0x4F SWAP3 SWAP2 SWAP1 PUSH3 0x57 JUMP JUMPDEST POP POP PUSH3 0x35A JUMP JUMPDEST DUP3 DUP1 SLOAD PUSH3 0x65 SWAP1 PUSH3 0x26B JUMP JUMPDEST SWAP1 PUSH1 0x0 MSTORE PUSH1 0x20 PUSH1 0x0 KECCAK256 SWAP1 PUSH1 0x1F ADD PUSH1 0x20 SWAP1 DIV DUP2 ADD SWAP3 DUP3 PUSH3 0x89 JUMPI PUSH1 0x0 DUP6 SSTORE PUSH3 0xD5 JUMP JUMPDEST DUP3 PUSH1 0x1F LT PUSH3 0xA4 JUMPI DUP1 MLOAD PUSH1 0xFF NOT AND DUP4 DUP1 ADD OR DUP6 SSTORE PUSH3 0xD5 JUMP JUMPDEST DUP3 DUP1 ADD PUSH1 0x1 ADD DUP6 SSTORE DUP3 ISZERO PUSH3 0xD5 JUMPI SWAP2 DUP3 ADD JUMPDEST DUP3 DUP2 GT ISZERO PUSH3 0xD4 JUMPI DUP3 MLOAD DUP3 SSTORE SWAP2 PUSH1 0x20 ADD SWAP2 SWAP1 PUSH1 0x1 ADD SWAP1 PUSH3 0xB7 JUMP JUMPDEST JUMPDEST POP SWAP1 POP PUSH3 0xE4 SWAP2 SWAP1 PUSH3 0xE8 JUMP JUMPDEST POP SWAP1 JUMP JUMPDEST JUMPDEST DUP1 DUP3 GT ISZERO PUSH3 0x103 JUMPI PUSH1 0x0 DUP2 PUSH1 0x0 SWAP1 SSTORE POP PUSH1 0x1 ADD PUSH3 0xE9 JUMP JUMPDEST POP SWAP1 JUMP JUMPDEST PUSH1 0x0 PUSH3 0x11E PUSH3 0x118 DUP5 PUSH3 0x1FF JUMP JUMPDEST PUSH3 0x1D6 JUMP JUMPDEST SWAP1 POP DUP3 DUP2 MSTORE PUSH1 0x20 DUP2 ADD DUP5 DUP5 DUP5 ADD GT ISZERO PUSH3 0x13D JUMPI PUSH3 0x13C PUSH3 0x33A JUMP JUMPDEST JUMPDEST PUSH3 0x14A DUP5 DUP3 DUP6 PUSH3 0x235 JUMP JUMPDEST POP SWAP4 SWAP3 POP POP POP JUMP JUMPDEST PUSH1 0x0 DUP3 PUSH1 0x1F DUP4 ADD SLT PUSH3 0x16A JUMPI PUSH3 0x169 PUSH3 0x335 JUMP JUMPDEST JUMPDEST DUP2 MLOAD PUSH3 0x17C DUP5 DUP3 PUSH1 0x20 DUP7 ADD PUSH3 0x107 JUMP JUMPDEST SWAP2 POP POP SWAP3 SWAP2 POP POP JUMP JUMPDEST PUSH1 0x0 PUSH1 0x20 DUP3 DUP5 SUB SLT ISZERO PUSH3 0x19E JUMPI PUSH3 0x19D PUSH3 0x344 JUMP JUMPDEST JUMPDEST PUSH1 0x0 DUP3 ADD MLOAD PUSH8 0xFFFFFFFFFFFFFFFF DUP2 GT ISZERO PUSH3 0x1BF JUMPI PUSH3 0x1BE PUSH3 0x33F JUMP JUMPDEST JUMPDEST PUSH3 0x1CD DUP5 DUP3 DUP6 ADD PUSH3 0x152 JUMP JUMPDEST SWAP2 POP POP SWAP3 SWAP2 POP POP JUMP JUMPDEST PUSH1 0x0 PUSH3 0x1E2 PUSH3 0x1F5 JUMP JUMPDEST SWAP1 POP PUSH3 0x1F0 DUP3 DUP3 PUSH3 0x2A1 JUMP JUMPDEST SWAP2 SWAP1 POP JUMP JUMPDEST PUSH1 0x0 PUSH1 0x40 MLOAD SWAP1 POP SWAP1 JUMP JUMPDEST PUSH1 0x0 PUSH8 0xFFFFFFFFFFFFFFFF DUP3 GT ISZERO PUSH3 0x21D JUMPI PUSH3 0x21C PUSH3 0x306 JUMP JUMPDEST JUMPDEST PUSH3 0x228 DUP3 PUSH3 0x349 JUMP JUMPDEST SWAP1 POP PUSH1 0x20 DUP2 ADD SWAP1 POP SWAP2 SWAP1 POP JUMP JUMPDEST PUSH1 0x0 JUMPDEST DUP4 DUP2 LT ISZERO PUSH3 0x255 JUMPI DUP1 DUP3 ADD MLOAD DUP2 DUP5 ADD MSTORE PUSH1 0x20 DUP2 ADD SWAP1 POP PUSH3 0x238 JUMP JUMPDEST DUP4 DUP2 GT ISZERO PUSH3 0x265 JUMPI PUSH1 0x0 DUP5 DUP5 ADD MSTORE JUMPDEST POP POP POP POP JUMP JUMPDEST PUSH1 0x0 PUSH1 0x2 DUP3 DIV SWAP1 POP PUSH1 0x1 DUP3 AND DUP1 PUSH3 0x284 JUMPI PUSH1 0x7F DUP3 AND SWAP2 POP JUMPDEST PUSH1 0x20 DUP3 LT DUP2 EQ ISZERO PUSH3 0x29B JUMPI PUSH3 0x29A PUSH3 0x2D7 JUMP JUMPDEST JUMPDEST POP SWAP2 SWAP1 POP JUMP JUMPDEST PUSH3 0x2AC DUP3 PUSH3 0x349 JUMP JUMPDEST DUP2 ADD DUP2 DUP2 LT PUSH8 0xFFFFFFFFFFFFFFFF DUP3 GT OR ISZERO PUSH3 0x2CE JUMPI PUSH3 0x2CD PUSH3 0x306 JUMP JUMPDEST JUMPDEST DUP1 PUSH1 0x40 MSTORE POP POP POP JUMP JUMPDEST PUSH32 0x4E487B7100000000000000000000000000000000000000000000000000000000 PUSH1 0x0 MSTORE PUSH1 0x22 PUSH1 0x4 MSTORE PUSH1 0x24 PUSH1 0x0 REVERT JUMPDEST PUSH32 0x4E487B7100000000000000000000000000000000000000000000000000000000 PUSH1 0x0 MSTORE PUSH1 0x41 PUSH1 0x4 MSTORE PUSH1 0x24 PUSH1 0x0 REVERT JUMPDEST PUSH1 0x0 DUP1 REVERT JUMPDEST PUSH1 0x0 DUP1 REVERT JUMPDEST PUSH1 0x0 DUP1 REVERT JUMPDEST PUSH1 0x0 DUP1 REVERT JUMPDEST PUSH1 0x0 PUSH1 0x1F NOT PUSH1 0x1F DUP4 ADD AND SWAP1 POP SWAP2 SWAP1 POP JUMP JUMPDEST PUSH2 0x5A3 DUP1 PUSH3 0x36A PUSH1 0x0 CODECOPY PUSH1 0x0 RETURN INVALID PUSH1 0x80 PUSH1 0x40 MSTORE CALLVALUE DUP1 ISZERO PUSH2 0x10 JUMPI PUSH1 0x0 DUP1 REVERT JUMPDEST POP PUSH1 0x4 CALLDATASIZE LT PUSH2 0x36 JUMPI PUSH1 0x0 CALLDATALOAD PUSH1 0xE0 SHR DUP1 PUSH4 0x3D7403A3 EQ PUSH2 0x3B JUMPI DUP1 PUSH4 0xE21F37CE EQ PUSH2 0x57 JUMPI JUMPDEST PUSH1 0x0 DUP1 REVERT JUMPDEST PUSH2 0x55 PUSH1 0x4 DUP1 CALLDATASIZE SUB DUP2 ADD SWAP1 PUSH2 0x50 SWAP2 SWAP1 PUSH2 0x2F8 JUMP JUMPDEST PUSH2 0x75 JUMP JUMPDEST STOP JUMPDEST PUSH2 0x5F PUSH2 0x157 JUMP JUMPDEST PUSH1 0x40 MLOAD PUSH2 0x6C SWAP2 SWAP1 PUSH2 0x37A JUMP JUMPDEST PUSH1 0x40 MLOAD DUP1 SWAP2 SUB SWAP1 RETURN JUMPDEST PUSH1 0x0 DUP1 DUP1 SLOAD PUSH2 0x83 SWAP1 PUSH2 0x487 JUMP JUMPDEST DUP1 PUSH1 0x1F ADD PUSH1 0x20 DUP1 SWAP2 DIV MUL PUSH1 0x20 ADD PUSH1 0x40 MLOAD SWAP1 DUP2 ADD PUSH1 0x40 MSTORE DUP1 SWAP3 SWAP2 SWAP1 DUP2 DUP2 MSTORE PUSH1 0x20 ADD DUP3 DUP1 SLOAD PUSH2 0xAF SWAP1 PUSH2 0x487 JUMP JUMPDEST DUP1 ISZERO PUSH2 0xFC JUMPI DUP1 PUSH1 0x1F LT PUSH2 0xD1 JUMPI PUSH2 0x100 DUP1 DUP4 SLOAD DIV MUL DUP4 MSTORE SWAP2 PUSH1 0x20 ADD SWAP2 PUSH2 0xFC JUMP JUMPDEST DUP3 ADD SWAP2 SWAP1 PUSH1 0x0 MSTORE PUSH1 0x20 PUSH1 0x0 KECCAK256 SWAP1 JUMPDEST DUP2 SLOAD DUP2 MSTORE SWAP1 PUSH1 0x1 ADD SWAP1 PUSH1 0x20 ADD DUP1 DUP4 GT PUSH2 0xDF JUMPI DUP3 SWAP1 SUB PUSH1 0x1F AND DUP3 ADD SWAP2 JUMPDEST POP POP POP POP POP SWAP1 POP DUP2 PUSH1 0x0 SWAP1 DUP1 MLOAD SWAP1 PUSH1 0x20 ADD SWAP1 PUSH2 0x119 SWAP3 SWAP2 SWAP1 PUSH2 0x1E5 JUMP JUMPDEST POP PUSH32 0xFEF6941E28A1F2E3FE516A5C6FFC075FE9C7CBE153860CA76439AA8493A4F99 DUP2 DUP4 PUSH1 0x40 MLOAD PUSH2 0x14B SWAP3 SWAP2 SWAP1 PUSH2 0x39C JUMP JUMPDEST PUSH1 0x40 MLOAD DUP1 SWAP2 SUB SWAP1 LOG1 POP POP JUMP JUMPDEST PUSH1 0x0 DUP1 SLOAD PUSH2 0x164 SWAP1 PUSH2 0x487 JUMP JUMPDEST DUP1 PUSH1 0x1F ADD PUSH1 0x20 DUP1 SWAP2 DIV MUL PUSH1 0x20 ADD PUSH1 0x40 MLOAD SWAP1 DUP2 ADD PUSH1 0x40 MSTORE DUP1 SWAP3 SWAP2 SWAP1 DUP2 DUP2 MSTORE PUSH1 0x20 ADD DUP3 DUP1 SLOAD PUSH2 0x190 SWAP1 PUSH2 0x487 JUMP JUMPDEST DUP1 ISZERO PUSH2 0x1DD JUMPI DUP1 PUSH1 0x1F LT PUSH2 0x1B2 JUMPI PUSH2 0x100 DUP1 DUP4 SLOAD DIV MUL DUP4 MSTORE SWAP2 PUSH1 0x20 ADD SWAP2 PUSH2 0x1DD JUMP JUMPDEST DUP3 ADD SWAP2 SWAP1 PUSH1 0x0 MSTORE PUSH1 0x20 PUSH1 0x0 KECCAK256 SWAP1 JUMPDEST DUP2 SLOAD DUP2 MSTORE SWAP1 PUSH1 0x1 ADD SWAP1 PUSH1 0x20 ADD DUP1 DUP4 GT PUSH2 0x1C0 JUMPI DUP3 SWAP1 SUB PUSH1 0x1F AND DUP3 ADD SWAP2 JUMPDEST POP POP POP POP POP DUP2 JUMP JUMPDEST DUP3 DUP1 SLOAD PUSH2 0x1F1 SWAP1 PUSH2 0x487 JUMP JUMPDEST SWAP1 PUSH1 0x0 MSTORE PUSH1 0x20 PUSH1 0x0 KECCAK256 SWAP1 PUSH1 0x1F ADD PUSH1 0x20 SWAP1 DIV DUP2 ADD SWAP3 DUP3 PUSH2 0x213 JUMPI PUSH1 0x0 DUP6 SSTORE PUSH2 0x25A JUMP JUMPDEST DUP3 PUSH1 0x1F LT PUSH2 0x22C JUMPI DUP1 MLOAD PUSH1 0xFF NOT AND DUP4 DUP1 ADD OR DUP6 SSTORE PUSH2 0x25A JUMP JUMPDEST DUP3 DUP1 ADD PUSH1 0x1 ADD DUP6 SSTORE DUP3 ISZERO PUSH2 0x25A JUMPI SWAP2 DUP3 ADD JUMPDEST DUP3 DUP2 GT ISZERO PUSH2 0x259 JUMPI DUP3 MLOAD DUP3 SSTORE SWAP2 PUSH1 0x20 ADD SWAP2 SWAP1 PUSH1 0x1 ADD SWAP1 PUSH2 0x23E JUMP JUMPDEST JUMPDEST POP SWAP1 POP PUSH2 0x267 SWAP2 SWAP1 PUSH2 0x26B JUMP JUMPDEST POP SWAP1 JUMP JUMPDEST JUMPDEST DUP1 DUP3 GT ISZERO PUSH2 0x284 JUMPI PUSH1 0x0 DUP2 PUSH1 0x0 SWAP1 SSTORE POP PUSH1 0x1 ADD PUSH2 0x26C JUMP JUMPDEST POP SWAP1 JUMP JUMPDEST PUSH1 0x0 PUSH2 0x29B PUSH2 0x296 DUP5 PUSH2 0x3F8 JUMP JUMPDEST PUSH2 0x3D3 JUMP JUMPDEST SWAP1 POP DUP3 DUP2 MSTORE PUSH1 0x20 DUP2 ADD DUP5 DUP5 DUP5 ADD GT ISZERO PUSH2 0x2B7 JUMPI PUSH2 0x2B6 PUSH2 0x54D JUMP JUMPDEST JUMPDEST PUSH2 0x2C2 DUP5 DUP3 DUP6 PUSH2 0x445 JUMP JUMPDEST POP SWAP4 SWAP3 POP POP POP JUMP JUMPDEST PUSH1 0x0 DUP3 PUSH1 0x1F DUP4 ADD SLT PUSH2 0x2DF JUMPI PUSH2 0x2DE PUSH2 0x548 JUMP JUMPDEST JUMPDEST DUP2 CALLDATALOAD PUSH2 0x2EF DUP5 DUP3 PUSH1 0x20 DUP7 ADD PUSH2 0x288 JUMP JUMPDEST SWAP2 POP POP SWAP3 SWAP2 POP POP JUMP JUMPDEST PUSH1 0x0 PUSH1 0x20 DUP3 DUP5 SUB SLT ISZERO PUSH2 0x30E JUMPI PUSH2 0x30D PUSH2 0x557 JUMP JUMPDEST JUMPDEST PUSH1 0x0 DUP3 ADD CALLDATALOAD PUSH8 0xFFFFFFFFFFFFFFFF DUP2 GT ISZERO PUSH2 0x32C JUMPI PUSH2 0x32B PUSH2 0x552 JUMP JUMPDEST JUMPDEST PUSH2 0x338 DUP5 DUP3 DUP6 ADD PUSH2 0x2CA JUMP JUMPDEST SWAP2 POP POP SWAP3 SWAP2 POP POP JUMP JUMPDEST PUSH1 0x0 PUSH2 0x34C DUP3 PUSH2 0x429 JUMP JUMPDEST PUSH2 0x356 DUP2 DUP6 PUSH2 0x434 JUMP JUMPDEST SWAP4 POP PUSH2 0x366 DUP2 DUP6 PUSH1 0x20 DUP7 ADD PUSH2 0x454 JUMP JUMPDEST PUSH2 0x36F DUP2 PUSH2 0x55C JUMP JUMPDEST DUP5 ADD SWAP2 POP POP SWAP3 SWAP2 POP POP JUMP JUMPDEST PUSH1 0x0 PUSH1 0x20 DUP3 ADD SWAP1 POP DUP2 DUP2 SUB PUSH1 0x0 DUP4 ADD MSTORE PUSH2 0x394 DUP2 DUP5 PUSH2 0x341 JUMP JUMPDEST SWAP1 POP SWAP3 SWAP2 POP POP JUMP JUMPDEST PUSH1 0x0 PUSH1 0x40 DUP3 ADD SWAP1 POP DUP2 DUP2 SUB PUSH1 0x0 DUP4 ADD MSTORE PUSH2 0x3B6 DUP2 DUP6 PUSH2 0x341 JUMP JUMPDEST SWAP1 POP DUP2 DUP2 SUB PUSH1 0x20 DUP4 ADD MSTORE PUSH2 0x3CA DUP2 DUP5 PUSH2 0x341 JUMP JUMPDEST SWAP1 POP SWAP4 SWAP3 POP POP POP JUMP JUMPDEST PUSH1 0x0 PUSH2 0x3DD PUSH2 0x3EE JUMP JUMPDEST SWAP1 POP PUSH2 0x3E9 DUP3 DUP3 PUSH2 0x4B9 JUMP JUMPDEST SWAP2 SWAP1 POP JUMP JUMPDEST PUSH1 0x0 PUSH1 0x40 MLOAD SWAP1 POP SWAP1 JUMP JUMPDEST PUSH1 0x0 PUSH8 0xFFFFFFFFFFFFFFFF DUP3 GT ISZERO PUSH2 0x413 JUMPI PUSH2 0x412 PUSH2 0x519 JUMP JUMPDEST JUMPDEST PUSH2 0x41C DUP3 PUSH2 0x55C JUMP JUMPDEST SWAP1 POP PUSH1 0x20 DUP2 ADD SWAP1 POP SWAP2 SWAP1 POP JUMP JUMPDEST PUSH1 0x0 DUP2 MLOAD SWAP1 POP SWAP2 SWAP1 POP JUMP JUMPDEST PUSH1 0x0 DUP3 DUP3 MSTORE PUSH1 0x20 DUP3 ADD SWAP1 POP SWAP3 SWAP2 POP POP JUMP JUMPDEST DUP3 DUP2 DUP4 CALLDATACOPY PUSH1 0x0 DUP4 DUP4 ADD MSTORE POP POP POP JUMP JUMPDEST PUSH1 0x0 JUMPDEST DUP4 DUP2 LT ISZERO PUSH2 0x472 JUMPI DUP1 DUP3 ADD MLOAD DUP2 DUP5 ADD MSTORE PUSH1 0x20 DUP2 ADD SWAP1 POP PUSH2 0x457 JUMP JUMPDEST DUP4 DUP2 GT ISZERO PUSH2 0x481 JUMPI PUSH1 0x0 DUP5 DUP5 ADD MSTORE JUMPDEST POP POP POP POP JUMP JUMPDEST PUSH1 0x0 PUSH1 0x2 DUP3 DIV SWAP1 POP PUSH1 0x1 DUP3 AND DUP1 PUSH2 0x49F JUMPI PUSH1 0x7F DUP3 AND SWAP2 POP JUMPDEST PUSH1 0x20 DUP3 LT DUP2 EQ ISZERO PUSH2 0x4B3 JUMPI PUSH2 0x4B2 PUSH2 0x4EA JUMP JUMPDEST JUMPDEST POP SWAP2 SWAP1 POP JUMP JUMPDEST PUSH2 0x4C2 DUP3 PUSH2 0x55C JUMP JUMPDEST DUP2 ADD DUP2 DUP2 LT PUSH8 0xFFFFFFFFFFFFFFFF DUP3 GT OR ISZERO PUSH2 0x4E1 JUMPI PUSH2 0x4E0 PUSH2 0x519 JUMP JUMPDEST JUMPDEST DUP1 PUSH1 0x40 MSTORE POP POP POP JUMP JUMPDEST PUSH32 0x4E487B7100000000000000000000000000000000000000000000000000000000 PUSH1 0x0 MSTORE PUSH1 0x22 PUSH1 0x4 MSTORE PUSH1 0x24 PUSH1 0x0 REVERT JUMPDEST PUSH32 0x4E487B7100000000000000000000000000000000000000000000000000000000 PUSH1 0x0 MSTORE PUSH1 0x41 PUSH1 0x4 MSTORE PUSH1 0x24 PUSH1 0x0 REVERT JUMPDEST PUSH1 0x0 DUP1 REVERT JUMPDEST PUSH1 0x0 DUP1 REVERT JUMPDEST PUSH1 0x0 DUP1 REVERT JUMPDEST PUSH1 0x0 DUP1 REVERT JUMPDEST PUSH1 0x0 PUSH1 0x1F NOT PUSH1 0x1F DUP4 ADD AND SWAP1 POP SWAP2 SWAP1 POP JUMP INVALID LOG2 PUSH5 0x6970667358 0x22 SLT KECCAK256 0xEF LOG2 0x2C 0x2F SHL 0xE6 0x1F CREATE2 GASLIMIT 0xBA JUMPI 0xCF 0x5F 0xC0 CALL ORIGIN 0xD5 0xB2 PUSH28 0x2CC7963089B866C0D7B8A8FE7D64736F6C6343000807003300000000 "
				},
				"gasEstimates": {
					"creation": {
						"codeDepositCost": "288600",
						"executionCost": "infinite",
						"totalCost": "infinite"
					},
					"external": {
						"message()": "infinite",
						"update(string)": "infinite"
					}
				},
				"methodIdentifiers": {
					"message()": "e21f37ce",
					"update(string)": "3d7403a3"
				}
			},
			"storageLayout": {
				"storage": [
					{
						"astId": 9,
						"contract": "HelloWorld.sol:HelloWorld",
						"label": "message",
						"offset": 0,
						"slot": "0",
						"type": "t_string_storage"
					}
				],
				"types": {
					"t_string_storage": {
						"encoding": "bytes",
						"label": "string",
						"numberOfBytes": "32"
					}
				}
			},
			"userdoc": {
				"kind": "user",
				"methods": {},
				"version": 1
			}
		}
	}
}